{
  "address": "0x8325959e86635FF5F2D8790251848bA48ff04aBd",
  "abi": [
    {
      "inputs": [
        {
          "internalType": "uint256",
          "name": "initialSupply",
          "type": "uint256"
        }
      ],
      "stateMutability": "nonpayable",
      "type": "constructor"
    },
    {
      "inputs": [],
      "name": "AmountToSmall",
      "type": "error"
    },
    {
      "anonymous": false,
      "inputs": [
        {
          "indexed": true,
          "internalType": "address",
          "name": "owner",
          "type": "address"
        },
        {
          "indexed": true,
          "internalType": "address",
          "name": "spender",
          "type": "address"
        },
        {
          "indexed": false,
          "internalType": "uint256",
          "name": "value",
          "type": "uint256"
        }
      ],
      "name": "Approval",
      "type": "event"
    },
    {
      "anonymous": false,
      "inputs": [
        {
          "indexed": false,
          "internalType": "address",
          "name": "user",
          "type": "address"
        },
        {
          "indexed": false,
          "internalType": "uint256",
          "name": "amount",
          "type": "uint256"
        }
      ],
      "name": "FundsDeposited",
      "type": "event"
    },
    {
      "anonymous": false,
      "inputs": [
        {
          "indexed": false,
          "internalType": "address",
          "name": "user",
          "type": "address"
        }
      ],
      "name": "ProfileUpdated",
      "type": "event"
    },
    {
      "anonymous": false,
      "inputs": [
        {
          "indexed": true,
          "internalType": "address",
          "name": "from",
          "type": "address"
        },
        {
          "indexed": true,
          "internalType": "address",
          "name": "to",
          "type": "address"
        },
        {
          "indexed": false,
          "internalType": "uint256",
          "name": "value",
          "type": "uint256"
        }
      ],
      "name": "Transfer",
      "type": "event"
    },
    {
      "inputs": [
        {
          "internalType": "uint256",
          "name": "fundAmount",
          "type": "uint256"
        }
      ],
      "name": "addFund",
      "outputs": [],
      "stateMutability": "nonpayable",
      "type": "function"
    },
    {
      "inputs": [
        {
          "internalType": "address",
          "name": "",
          "type": "address"
        }
      ],
      "name": "addressToAmount",
      "outputs": [
        {
          "internalType": "uint256",
          "name": "",
          "type": "uint256"
        }
      ],
      "stateMutability": "view",
      "type": "function"
    },
    {
      "inputs": [
        {
          "internalType": "address",
          "name": "",
          "type": "address"
        }
      ],
      "name": "addressToUser",
      "outputs": [
        {
          "internalType": "string",
          "name": "name",
          "type": "string"
        },
        {
          "internalType": "uint256",
          "name": "age",
          "type": "uint256"
        },
        {
          "internalType": "uint256",
          "name": "balance",
          "type": "uint256"
        }
      ],
      "stateMutability": "view",
      "type": "function"
    },
    {
      "inputs": [
        {
          "internalType": "address",
          "name": "owner",
          "type": "address"
        },
        {
          "internalType": "address",
          "name": "spender",
          "type": "address"
        }
      ],
      "name": "allowance",
      "outputs": [
        {
          "internalType": "uint256",
          "name": "",
          "type": "uint256"
        }
      ],
      "stateMutability": "view",
      "type": "function"
    },
    {
      "inputs": [
        {
          "internalType": "address",
          "name": "spender",
          "type": "address"
        },
        {
          "internalType": "uint256",
          "name": "amount",
          "type": "uint256"
        }
      ],
      "name": "approve",
      "outputs": [
        {
          "internalType": "bool",
          "name": "",
          "type": "bool"
        }
      ],
      "stateMutability": "nonpayable",
      "type": "function"
    },
    {
      "inputs": [
        {
          "internalType": "address",
          "name": "account",
          "type": "address"
        }
      ],
      "name": "balanceOf",
      "outputs": [
        {
          "internalType": "uint256",
          "name": "",
          "type": "uint256"
        }
      ],
      "stateMutability": "view",
      "type": "function"
    },
    {
      "inputs": [],
      "name": "checkBalance",
      "outputs": [
        {
          "internalType": "uint256",
          "name": "",
          "type": "uint256"
        }
      ],
      "stateMutability": "view",
      "type": "function"
    },
    {
      "inputs": [],
      "name": "decimals",
      "outputs": [
        {
          "internalType": "uint8",
          "name": "",
          "type": "uint8"
        }
      ],
      "stateMutability": "view",
      "type": "function"
    },
    {
      "inputs": [
        {
          "internalType": "address",
          "name": "spender",
          "type": "address"
        },
        {
          "internalType": "uint256",
          "name": "subtractedValue",
          "type": "uint256"
        }
      ],
      "name": "decreaseAllowance",
      "outputs": [
        {
          "internalType": "bool",
          "name": "",
          "type": "bool"
        }
      ],
      "stateMutability": "nonpayable",
      "type": "function"
    },
    {
      "inputs": [
        {
          "internalType": "uint256",
          "name": "depositAmount",
          "type": "uint256"
        }
      ],
      "name": "deposit",
      "outputs": [],
      "stateMutability": "nonpayable",
      "type": "function"
    },
    {
      "inputs": [],
      "name": "getUserDetails",
      "outputs": [
        {
          "internalType": "string",
          "name": "",
          "type": "string"
        },
        {
          "internalType": "uint256",
          "name": "",
          "type": "uint256"
        },
        {
          "internalType": "uint256",
          "name": "",
          "type": "uint256"
        }
      ],
      "stateMutability": "view",
      "type": "function"
    },
    {
      "inputs": [],
      "name": "i_owner",
      "outputs": [
        {
          "internalType": "address",
          "name": "",
          "type": "address"
        }
      ],
      "stateMutability": "view",
      "type": "function"
    },
    {
      "inputs": [
        {
          "internalType": "address",
          "name": "spender",
          "type": "address"
        },
        {
          "internalType": "uint256",
          "name": "addedValue",
          "type": "uint256"
        }
      ],
      "name": "increaseAllowance",
      "outputs": [
        {
          "internalType": "bool",
          "name": "",
          "type": "bool"
        }
      ],
      "stateMutability": "nonpayable",
      "type": "function"
    },
    {
      "inputs": [],
      "name": "name",
      "outputs": [
        {
          "internalType": "string",
          "name": "",
          "type": "string"
        }
      ],
      "stateMutability": "view",
      "type": "function"
    },
    {
      "inputs": [
        {
          "internalType": "string",
          "name": "name",
          "type": "string"
        },
        {
          "internalType": "uint256",
          "name": "age",
          "type": "uint256"
        }
      ],
      "name": "setUserDetails",
      "outputs": [],
      "stateMutability": "nonpayable",
      "type": "function"
    },
    {
      "inputs": [],
      "name": "symbol",
      "outputs": [
        {
          "internalType": "string",
          "name": "",
          "type": "string"
        }
      ],
      "stateMutability": "view",
      "type": "function"
    },
    {
      "inputs": [],
      "name": "totalSupply",
      "outputs": [
        {
          "internalType": "uint256",
          "name": "",
          "type": "uint256"
        }
      ],
      "stateMutability": "view",
      "type": "function"
    },
    {
      "inputs": [
        {
          "internalType": "address",
          "name": "to",
          "type": "address"
        },
        {
          "internalType": "uint256",
          "name": "amount",
          "type": "uint256"
        }
      ],
      "name": "transfer",
      "outputs": [
        {
          "internalType": "bool",
          "name": "",
          "type": "bool"
        }
      ],
      "stateMutability": "nonpayable",
      "type": "function"
    },
    {
      "inputs": [
        {
          "internalType": "address",
          "name": "from",
          "type": "address"
        },
        {
          "internalType": "address",
          "name": "to",
          "type": "address"
        },
        {
          "internalType": "uint256",
          "name": "amount",
          "type": "uint256"
        }
      ],
      "name": "transferFrom",
      "outputs": [
        {
          "internalType": "bool",
          "name": "",
          "type": "bool"
        }
      ],
      "stateMutability": "nonpayable",
      "type": "function"
    },
    {
      "inputs": [
        {
          "internalType": "uint256",
          "name": "withdrawAmount",
          "type": "uint256"
        }
      ],
      "name": "withdraw",
      "outputs": [],
      "stateMutability": "nonpayable",
      "type": "function"
    }
  ],
  "transactionHash": "0x766c07efc77d425f0c144afea6d547ea5fd73e517c40dadae526b1daeb1cfdc0",
  "args": [
    10
  ],
  "numDeployments": 1,
  "solcInputHash": "515fbf87eec52dc155a09d20b073d938",
  "bytecode": "0x60a06040523480156200001157600080fd5b506040516200253838038062002538833981810160405281019062000037919062000371565b6040518060400160405280600781526020017f4d79546f6b656e000000000000000000000000000000000000000000000000008152506040518060400160405280600281526020017f4d540000000000000000000000000000000000000000000000000000000000008152508160039080519060200190620000bb929190620002aa565b508060049080519060200190620000d4929190620002aa565b5050503373ffffffffffffffffffffffffffffffffffffffff1660808173ffffffffffffffffffffffffffffffffffffffff1660601b815250506200012033826200012760201b60201c565b506200056e565b600073ffffffffffffffffffffffffffffffffffffffff168273ffffffffffffffffffffffffffffffffffffffff1614156200019a576040517f08c379a00000000000000000000000000000000000000000000000000000000081526004016200019190620003db565b60405180910390fd5b620001ae60008383620002a060201b60201c565b8060026000828254620001c291906200042b565b92505081905550806000808473ffffffffffffffffffffffffffffffffffffffff1673ffffffffffffffffffffffffffffffffffffffff16815260200190815260200160002060008282546200021991906200042b565b925050819055508173ffffffffffffffffffffffffffffffffffffffff16600073ffffffffffffffffffffffffffffffffffffffff167fddf252ad1be2c89b69c2b068fc378daa952ba7f163c4a11628f55a4df523b3ef83604051620002809190620003fd565b60405180910390a36200029c60008383620002a560201b60201c565b5050565b505050565b505050565b828054620002b89062000492565b90600052602060002090601f016020900481019282620002dc576000855562000328565b82601f10620002f757805160ff191683800117855562000328565b8280016001018555821562000328579182015b82811115620003275782518255916020019190600101906200030a565b5b5090506200033791906200033b565b5090565b5b80821115620003565760008160009055506001016200033c565b5090565b6000815190506200036b8162000554565b92915050565b6000602082840312156200038a576200038962000526565b5b60006200039a848285016200035a565b91505092915050565b6000620003b2601f836200041a565b9150620003bf826200052b565b602082019050919050565b620003d58162000488565b82525050565b60006020820190508181036000830152620003f681620003a3565b9050919050565b6000602082019050620004146000830184620003ca565b92915050565b600082825260208201905092915050565b6000620004388262000488565b9150620004458362000488565b9250827fffffffffffffffffffffffffffffffffffffffffffffffffffffffffffffffff038211156200047d576200047c620004c8565b5b828201905092915050565b6000819050919050565b60006002820490506001821680620004ab57607f821691505b60208210811415620004c257620004c1620004f7565b5b50919050565b7f4e487b7100000000000000000000000000000000000000000000000000000000600052601160045260246000fd5b7f4e487b7100000000000000000000000000000000000000000000000000000000600052602260045260246000fd5b600080fd5b7f45524332303a206d696e7420746f20746865207a65726f206164647265737300600082015250565b6200055f8162000488565b81146200056b57600080fd5b50565b60805160601c611f65620005d360003960008181610530015281816105e0015281816106780152818161070b0152818161097f015281816109e101528181610a4401528181610c6b01528181610d4401528181610d850152610de90152611f656000f3fe608060405234801561001057600080fd5b506004361061012c5760003560e01c806370a08231116100ad578063b6b55f2511610071578063b6b55f251461036d578063c71daccb14610389578063dba6335f146103a7578063dd62ed3e146103c5578063edf53886146103f55761012c565b806370a082311461029f578063942886be146102cf57806395d89b41146102ef578063a457c2d71461030d578063a9059cbb1461033d5761012c565b80632e1a7d4d116100f45780632e1a7d4d146101e9578063313ce56714610205578063346c96e914610223578063395093511461023f5780633c7e7d281461026f5761012c565b806306fdde031461013157806308f6f76e1461014f578063095ea7b31461016b57806318160ddd1461019b57806323b872dd146101b9575b600080fd5b610139610427565b604051610146919061190e565b60405180910390f35b61016960048036038101906101649190611672565b6104b9565b005b61018560048036038101906101809190611632565b61061a565b60405161019291906118f3565b60405180910390f35b6101a361063d565b6040516101b09190611a8e565b60405180910390f35b6101d360048036038101906101ce91906115df565b610647565b6040516101e091906118f3565b60405180910390f35b61020360048036038101906101fe91906116d2565b610676565b005b61020d610780565b60405161021a9190611aa9565b60405180910390f35b61023d600480360381019061023891906116d2565b610789565b005b61025960048036038101906102549190611632565b6108dd565b60405161026691906118f3565b60405180910390f35b61028960048036038101906102849190611572565b610914565b6040516102969190611a8e565b60405180910390f35b6102b960048036038101906102b49190611572565b61092c565b6040516102c69190611a8e565b60405180910390f35b6102d7610974565b6040516102e693929190611930565b60405180910390f35b6102f7610b38565b604051610304919061190e565b60405180910390f35b61032760048036038101906103229190611632565b610bca565b60405161033491906118f3565b60405180910390f35b61035760048036038101906103529190611632565b610c41565b60405161036491906118f3565b60405180910390f35b610387600480360381019061038291906116d2565b610c64565b005b610391610d7d565b60405161039e9190611a8e565b60405180910390f35b6103af610de7565b6040516103bc91906118af565b60405180910390f35b6103df60048036038101906103da919061159f565b610e0b565b6040516103ec9190611a8e565b60405180910390f35b61040f600480360381019061040a9190611572565b610e92565b60405161041e93929190611930565b60405180910390f35b60606003805461043690611bf2565b80601f016020809104026020016040519081016040528092919081815260200182805461046290611bf2565b80156104af5780601f10610484576101008083540402835291602001916104af565b820191906000526020600020905b81548152906001019060200180831161049257829003601f168201915b5050505050905090565b6104c161142e565b83838080601f016020809104026020016040519081016040528093929190818152602001838380828437600081840152601f19601f82011690508083019250505050505050816000018190525081816020018181525050610520610d7d565b81604001818152505080600560007f000000000000000000000000000000000000000000000000000000000000000073ffffffffffffffffffffffffffffffffffffffff1673ffffffffffffffffffffffffffffffffffffffff16815260200190815260200160002060008201518160000190805190602001906105a592919061144f565b5060208201518160010155604082015181600201559050507fbe4ec58a792f909e102ee3d745d0c3b34a4d437a54d903c4db098d31c556422f7f000000000000000000000000000000000000000000000000000000000000000060405161060c91906118af565b60405180910390a150505050565b600080610625610f44565b9050610632818585610f4c565b600191505092915050565b6000600254905090565b600080610652610f44565b905061065f858285611117565b61066a8585856111a3565b60019150509392505050565b7f000000000000000000000000000000000000000000000000000000000000000073ffffffffffffffffffffffffffffffffffffffff163373ffffffffffffffffffffffffffffffffffffffff1614610704576040517f08c379a00000000000000000000000000000000000000000000000000000000081526004016106fb90611a2e565b60405180910390fd5b80600560007f000000000000000000000000000000000000000000000000000000000000000073ffffffffffffffffffffffffffffffffffffffff1673ffffffffffffffffffffffffffffffffffffffff16815260200190815260200160002060020160008282546107769190611b36565b9250508190555050565b60006012905090565b336000600660008373ffffffffffffffffffffffffffffffffffffffff1673ffffffffffffffffffffffffffffffffffffffff16815260200190815260200160002054141561080d576040517f08c379a0000000000000000000000000000000000000000000000000000000008152600401610804906119ee565b60405180910390fd5b816002811015610849576040517fe07d327100000000000000000000000000000000000000000000000000000000815260040160405180910390fd5b82600660003373ffffffffffffffffffffffffffffffffffffffff1673ffffffffffffffffffffffffffffffffffffffff16815260200190815260200160002060008282546108989190611ae0565b925050819055507f543ba50a5eec5e6178218e364b1d0f396157b3c8fa278522c2cb7fd99407d47433846040516108d09291906118ca565b60405180910390a1505050565b6000806108e8610f44565b90506109098185856108fa8589610e0b565b6109049190611ae0565b610f4c565b600191505092915050565b60066020528060005260406000206000915090505481565b60008060008373ffffffffffffffffffffffffffffffffffffffff1673ffffffffffffffffffffffffffffffffffffffff168152602001908152602001600020549050919050565b6060600080600560007f000000000000000000000000000000000000000000000000000000000000000073ffffffffffffffffffffffffffffffffffffffff1673ffffffffffffffffffffffffffffffffffffffff168152602001908152602001600020600001600560007f000000000000000000000000000000000000000000000000000000000000000073ffffffffffffffffffffffffffffffffffffffff1673ffffffffffffffffffffffffffffffffffffffff16815260200190815260200160002060010154600560007f000000000000000000000000000000000000000000000000000000000000000073ffffffffffffffffffffffffffffffffffffffff1673ffffffffffffffffffffffffffffffffffffffff16815260200190815260200160002060020154828054610aad90611bf2565b80601f0160208091040260200160405190810160405280929190818152602001828054610ad990611bf2565b8015610b265780601f10610afb57610100808354040283529160200191610b26565b820191906000526020600020905b815481529060010190602001808311610b0957829003601f168201915b50505050509250925092509250909192565b606060048054610b4790611bf2565b80601f0160208091040260200160405190810160405280929190818152602001828054610b7390611bf2565b8015610bc05780601f10610b9557610100808354040283529160200191610bc0565b820191906000526020600020905b815481529060010190602001808311610ba357829003601f168201915b5050505050905090565b600080610bd5610f44565b90506000610be38286610e0b565b905083811015610c28576040517f08c379a0000000000000000000000000000000000000000000000000000000008152600401610c1f90611a6e565b60405180910390fd5b610c358286868403610f4c565b60019250505092915050565b600080610c4c610f44565b9050610c598185856111a3565b600191505092915050565b80600560007f000000000000000000000000000000000000000000000000000000000000000073ffffffffffffffffffffffffffffffffffffffff1673ffffffffffffffffffffffffffffffffffffffff1681526020019081526020016000206002016000828254610cd69190611ae0565b9250508190555080600660003373ffffffffffffffffffffffffffffffffffffffff1673ffffffffffffffffffffffffffffffffffffffff168152602001908152602001600020819055507f543ba50a5eec5e6178218e364b1d0f396157b3c8fa278522c2cb7fd99407d4747f000000000000000000000000000000000000000000000000000000000000000082604051610d729291906118ca565b60405180910390a150565b6000600560007f000000000000000000000000000000000000000000000000000000000000000073ffffffffffffffffffffffffffffffffffffffff1673ffffffffffffffffffffffffffffffffffffffff16815260200190815260200160002060020154905090565b7f000000000000000000000000000000000000000000000000000000000000000081565b6000600160008473ffffffffffffffffffffffffffffffffffffffff1673ffffffffffffffffffffffffffffffffffffffff16815260200190815260200160002060008373ffffffffffffffffffffffffffffffffffffffff1673ffffffffffffffffffffffffffffffffffffffff16815260200190815260200160002054905092915050565b6005602052806000526040600020600091509050806000018054610eb590611bf2565b80601f0160208091040260200160405190810160405280929190818152602001828054610ee190611bf2565b8015610f2e5780601f10610f0357610100808354040283529160200191610f2e565b820191906000526020600020905b815481529060010190602001808311610f1157829003601f168201915b5050505050908060010154908060020154905083565b600033905090565b600073ffffffffffffffffffffffffffffffffffffffff168373ffffffffffffffffffffffffffffffffffffffff161415610fbc576040517f08c379a0000000000000000000000000000000000000000000000000000000008152600401610fb390611a4e565b60405180910390fd5b600073ffffffffffffffffffffffffffffffffffffffff168273ffffffffffffffffffffffffffffffffffffffff16141561102c576040517f08c379a00000000000000000000000000000000000000000000000000000000081526004016110239061198e565b60405180910390fd5b80600160008573ffffffffffffffffffffffffffffffffffffffff1673ffffffffffffffffffffffffffffffffffffffff16815260200190815260200160002060008473ffffffffffffffffffffffffffffffffffffffff1673ffffffffffffffffffffffffffffffffffffffff168152602001908152602001600020819055508173ffffffffffffffffffffffffffffffffffffffff168373ffffffffffffffffffffffffffffffffffffffff167f8c5be1e5ebec7d5bd14f71427d1e84f3dd0314c0f7b2291e5b200ac8c7c3b9258360405161110a9190611a8e565b60405180910390a3505050565b60006111238484610e0b565b90507fffffffffffffffffffffffffffffffffffffffffffffffffffffffffffffffff811461119d578181101561118f576040517f08c379a0000000000000000000000000000000000000000000000000000000008152600401611186906119ae565b60405180910390fd5b61119c8484848403610f4c565b5b50505050565b600073ffffffffffffffffffffffffffffffffffffffff168373ffffffffffffffffffffffffffffffffffffffff161415611213576040517f08c379a000000000000000000000000000000000000000000000000000000000815260040161120a90611a0e565b60405180910390fd5b600073ffffffffffffffffffffffffffffffffffffffff168273ffffffffffffffffffffffffffffffffffffffff161415611283576040517f08c379a000000000000000000000000000000000000000000000000000000000815260040161127a9061196e565b60405180910390fd5b61128e838383611424565b60008060008573ffffffffffffffffffffffffffffffffffffffff1673ffffffffffffffffffffffffffffffffffffffff16815260200190815260200160002054905081811015611314576040517f08c379a000000000000000000000000000000000000000000000000000000000815260040161130b906119ce565b60405180910390fd5b8181036000808673ffffffffffffffffffffffffffffffffffffffff1673ffffffffffffffffffffffffffffffffffffffff16815260200190815260200160002081905550816000808573ffffffffffffffffffffffffffffffffffffffff1673ffffffffffffffffffffffffffffffffffffffff16815260200190815260200160002060008282546113a79190611ae0565b925050819055508273ffffffffffffffffffffffffffffffffffffffff168473ffffffffffffffffffffffffffffffffffffffff167fddf252ad1be2c89b69c2b068fc378daa952ba7f163c4a11628f55a4df523b3ef8460405161140b9190611a8e565b60405180910390a361141e848484611429565b50505050565b505050565b505050565b60405180606001604052806060815260200160008152602001600081525090565b82805461145b90611bf2565b90600052602060002090601f01602090048101928261147d57600085556114c4565b82601f1061149657805160ff19168380011785556114c4565b828001600101855582156114c4579182015b828111156114c35782518255916020019190600101906114a8565b5b5090506114d191906114d5565b5090565b5b808211156114ee5760008160009055506001016114d6565b5090565b60008135905061150181611f01565b92915050565b60008083601f84011261151d5761151c611c87565b5b8235905067ffffffffffffffff81111561153a57611539611c82565b5b60208301915083600182028301111561155657611555611c8c565b5b9250929050565b60008135905061156c81611f18565b92915050565b60006020828403121561158857611587611c96565b5b6000611596848285016114f2565b91505092915050565b600080604083850312156115b6576115b5611c96565b5b60006115c4858286016114f2565b92505060206115d5858286016114f2565b9150509250929050565b6000806000606084860312156115f8576115f7611c96565b5b6000611606868287016114f2565b9350506020611617868287016114f2565b92505060406116288682870161155d565b9150509250925092565b6000806040838503121561164957611648611c96565b5b6000611657858286016114f2565b92505060206116688582860161155d565b9150509250929050565b60008060006040848603121561168b5761168a611c96565b5b600084013567ffffffffffffffff8111156116a9576116a8611c91565b5b6116b586828701611507565b935093505060206116c88682870161155d565b9150509250925092565b6000602082840312156116e8576116e7611c96565b5b60006116f68482850161155d565b91505092915050565b61170881611b6a565b82525050565b61171781611b7c565b82525050565b600061172882611ac4565b6117328185611acf565b9350611742818560208601611bbf565b61174b81611c9b565b840191505092915050565b6000611763602383611acf565b915061176e82611cac565b604082019050919050565b6000611786602283611acf565b915061179182611cfb565b604082019050919050565b60006117a9601d83611acf565b91506117b482611d4a565b602082019050919050565b60006117cc602683611acf565b91506117d782611d73565b604082019050919050565b60006117ef600f83611acf565b91506117fa82611dc2565b602082019050919050565b6000611812602583611acf565b915061181d82611deb565b604082019050919050565b6000611835600983611acf565b915061184082611e3a565b602082019050919050565b6000611858602483611acf565b915061186382611e63565b604082019050919050565b600061187b602583611acf565b915061188682611eb2565b604082019050919050565b61189a81611ba8565b82525050565b6118a981611bb2565b82525050565b60006020820190506118c460008301846116ff565b92915050565b60006040820190506118df60008301856116ff565b6118ec6020830184611891565b9392505050565b6000602082019050611908600083018461170e565b92915050565b60006020820190508181036000830152611928818461171d565b905092915050565b6000606082019050818103600083015261194a818661171d565b90506119596020830185611891565b6119666040830184611891565b949350505050565b6000602082019050818103600083015261198781611756565b9050919050565b600060208201905081810360008301526119a781611779565b9050919050565b600060208201905081810360008301526119c78161179c565b9050919050565b600060208201905081810360008301526119e7816117bf565b9050919050565b60006020820190508181036000830152611a07816117e2565b9050919050565b60006020820190508181036000830152611a2781611805565b9050919050565b60006020820190508181036000830152611a4781611828565b9050919050565b60006020820190508181036000830152611a678161184b565b9050919050565b60006020820190508181036000830152611a878161186e565b9050919050565b6000602082019050611aa36000830184611891565b92915050565b6000602082019050611abe60008301846118a0565b92915050565b600081519050919050565b600082825260208201905092915050565b6000611aeb82611ba8565b9150611af683611ba8565b9250827fffffffffffffffffffffffffffffffffffffffffffffffffffffffffffffffff03821115611b2b57611b2a611c24565b5b828201905092915050565b6000611b4182611ba8565b9150611b4c83611ba8565b925082821015611b5f57611b5e611c24565b5b828203905092915050565b6000611b7582611b88565b9050919050565b60008115159050919050565b600073ffffffffffffffffffffffffffffffffffffffff82169050919050565b6000819050919050565b600060ff82169050919050565b60005b83811015611bdd578082015181840152602081019050611bc2565b83811115611bec576000848401525b50505050565b60006002820490506001821680611c0a57607f821691505b60208210811415611c1e57611c1d611c53565b5b50919050565b7f4e487b7100000000000000000000000000000000000000000000000000000000600052601160045260246000fd5b7f4e487b7100000000000000000000000000000000000000000000000000000000600052602260045260246000fd5b600080fd5b600080fd5b600080fd5b600080fd5b600080fd5b6000601f19601f8301169050919050565b7f45524332303a207472616e7366657220746f20746865207a65726f206164647260008201527f6573730000000000000000000000000000000000000000000000000000000000602082015250565b7f45524332303a20617070726f766520746f20746865207a65726f20616464726560008201527f7373000000000000000000000000000000000000000000000000000000000000602082015250565b7f45524332303a20696e73756666696369656e7420616c6c6f77616e6365000000600082015250565b7f45524332303a207472616e7366657220616d6f756e742065786365656473206260008201527f616c616e63650000000000000000000000000000000000000000000000000000602082015250565b7f446964206e6f74206465706f7369740000000000000000000000000000000000600082015250565b7f45524332303a207472616e736665722066726f6d20746865207a65726f20616460008201527f6472657373000000000000000000000000000000000000000000000000000000602082015250565b7f4e6f74206f776e65720000000000000000000000000000000000000000000000600082015250565b7f45524332303a20617070726f76652066726f6d20746865207a65726f2061646460008201527f7265737300000000000000000000000000000000000000000000000000000000602082015250565b7f45524332303a2064656372656173656420616c6c6f77616e63652062656c6f7760008201527f207a65726f000000000000000000000000000000000000000000000000000000602082015250565b611f0a81611b6a565b8114611f1557600080fd5b50565b611f2181611ba8565b8114611f2c57600080fd5b5056fea2646970667358221220389d32c139202b6504d593f736641b939cf396d419b63ba914dffc392ff7421264736f6c63430008070033",
  "devdoc": {
    "kind": "dev",
    "methods": {
      "allowance(address,address)": {
        "details": "See {IERC20-allowance}."
      },
      "approve(address,uint256)": {
        "details": "See {IERC20-approve}. NOTE: If `amount` is the maximum `uint256`, the allowance is not updated on `transferFrom`. This is semantically equivalent to an infinite approval. Requirements: - `spender` cannot be the zero address."
      },
      "balanceOf(address)": {
        "details": "See {IERC20-balanceOf}."
      },
      "decimals()": {
        "details": "Returns the number of decimals used to get its user representation. For example, if `decimals` equals `2`, a balance of `505` tokens should be displayed to a user as `5.05` (`505 / 10 ** 2`). Tokens usually opt for a value of 18, imitating the relationship between Ether and Wei. This is the value {ERC20} uses, unless this function is overridden; NOTE: This information is only used for _display_ purposes: it in no way affects any of the arithmetic of the contract, including {IERC20-balanceOf} and {IERC20-transfer}."
      },
      "decreaseAllowance(address,uint256)": {
        "details": "Atomically decreases the allowance granted to `spender` by the caller. This is an alternative to {approve} that can be used as a mitigation for problems described in {IERC20-approve}. Emits an {Approval} event indicating the updated allowance. Requirements: - `spender` cannot be the zero address. - `spender` must have allowance for the caller of at least `subtractedValue`."
      },
      "increaseAllowance(address,uint256)": {
        "details": "Atomically increases the allowance granted to `spender` by the caller. This is an alternative to {approve} that can be used as a mitigation for problems described in {IERC20-approve}. Emits an {Approval} event indicating the updated allowance. Requirements: - `spender` cannot be the zero address."
      },
      "name()": {
        "details": "Returns the name of the token."
      },
      "symbol()": {
        "details": "Returns the symbol of the token, usually a shorter version of the name."
      },
      "totalSupply()": {
        "details": "See {IERC20-totalSupply}."
      },
      "transfer(address,uint256)": {
        "details": "See {IERC20-transfer}. Requirements: - `to` cannot be the zero address. - the caller must have a balance of at least `amount`."
      },
      "transferFrom(address,address,uint256)": {
        "details": "See {IERC20-transferFrom}. Emits an {Approval} event indicating the updated allowance. This is not required by the EIP. See the note at the beginning of {ERC20}. NOTE: Does not update the allowance if the current allowance is the maximum `uint256`. Requirements: - `from` and `to` cannot be the zero address. - `from` must have a balance of at least `amount`. - the caller must have allowance for ``from``'s tokens of at least `amount`."
      }
    },
    "version": 1
  },
  "userdoc": {
    "kind": "user",
    "methods": {},
    "version": 1
  },
  "storageLayout": {
    "storage": [
      {
        "astId": 15,
        "contract": "contracts/MyToken.sol:MyToken",
        "label": "_balances",
        "offset": 0,
        "slot": "0",
        "type": "t_mapping(t_address,t_uint256)"
      },
      {
        "astId": 21,
        "contract": "contracts/MyToken.sol:MyToken",
        "label": "_allowances",
        "offset": 0,
        "slot": "1",
        "type": "t_mapping(t_address,t_mapping(t_address,t_uint256))"
      },
      {
        "astId": 23,
        "contract": "contracts/MyToken.sol:MyToken",
        "label": "_totalSupply",
        "offset": 0,
        "slot": "2",
        "type": "t_uint256"
      },
      {
        "astId": 25,
        "contract": "contracts/MyToken.sol:MyToken",
        "label": "_name",
        "offset": 0,
        "slot": "3",
        "type": "t_string_storage"
      },
      {
        "astId": 27,
        "contract": "contracts/MyToken.sol:MyToken",
        "label": "_symbol",
        "offset": 0,
        "slot": "4",
        "type": "t_string_storage"
      },
      {
        "astId": 744,
        "contract": "contracts/MyToken.sol:MyToken",
        "label": "addressToUser",
        "offset": 0,
        "slot": "5",
        "type": "t_mapping(t_address,t_struct(User)734_storage)"
      },
      {
        "astId": 748,
        "contract": "contracts/MyToken.sol:MyToken",
        "label": "addressToAmount",
        "offset": 0,
        "slot": "6",
        "type": "t_mapping(t_address,t_uint256)"
      }
    ],
    "types": {
      "t_address": {
        "encoding": "inplace",
        "label": "address",
        "numberOfBytes": "20"
      },
      "t_mapping(t_address,t_mapping(t_address,t_uint256))": {
        "encoding": "mapping",
        "key": "t_address",
        "label": "mapping(address => mapping(address => uint256))",
        "numberOfBytes": "32",
        "value": "t_mapping(t_address,t_uint256)"
      },
      "t_mapping(t_address,t_struct(User)734_storage)": {
        "encoding": "mapping",
        "key": "t_address",
        "label": "mapping(address => struct MyToken.User)",
        "numberOfBytes": "32",
        "value": "t_struct(User)734_storage"
      },
      "t_mapping(t_address,t_uint256)": {
        "encoding": "mapping",
        "key": "t_address",
        "label": "mapping(address => uint256)",
        "numberOfBytes": "32",
        "value": "t_uint256"
      },
      "t_string_storage": {
        "encoding": "bytes",
        "label": "string",
        "numberOfBytes": "32"
      },
      "t_struct(User)734_storage": {
        "encoding": "inplace",
        "label": "struct MyToken.User",
        "members": [
          {
            "astId": 729,
            "contract": "contracts/MyToken.sol:MyToken",
            "label": "name",
            "offset": 0,
            "slot": "0",
            "type": "t_string_storage"
          },
          {
            "astId": 731,
            "contract": "contracts/MyToken.sol:MyToken",
            "label": "age",
            "offset": 0,
            "slot": "1",
            "type": "t_uint256"
          },
          {
            "astId": 733,
            "contract": "contracts/MyToken.sol:MyToken",
            "label": "balance",
            "offset": 0,
            "slot": "2",
            "type": "t_uint256"
          }
        ],
        "numberOfBytes": "96"
      },
      "t_uint256": {
        "encoding": "inplace",
        "label": "uint256",
        "numberOfBytes": "32"
      }
    }
  }
}